:020000040800F2
:10000000880B00202902000801300008E9290008B7
:10001000FD2D0008CD0500080D3700080000000088
:100020000000000000000000000000000530000893
:1000300081060008000000000330000807300008B7
:10004000430200084302000843020008430200087C
:10005000430200084302000843020008430200086C
:10006000430200084302000843020008430200085C
:10007000430200084302000843020008430200084C
:10008000430200084302000843020008430200083C
:10009000430200084302000843020008430200082C
:1000A000430200084302000843020008430200081C
:1000B000B1300008BD3000084302000843020008C8
:1000C00043020008430200084302000843020008FC
:1000D00043020008013700084302000843020008F9
:1000E00043020008430200084302000843020008DC
:1000F00043020008C9300008430200084302000818
:1001000043020008430200084302000843020008BB
:10011000913400084302000843020008430200082B
:10012000430200084302000843020008430200089B
:10013000430200084302000843020008430200088B
:10014000430200084302000843020008430200087B
:100150004302000843020008D105000843020008DA
:10016000430200084302000843020008430200085B
:100170004302000843020008430200080000000098
:10018000430200084302000800F002F800F03CF8C7
:100190000AA090E8000C82448344AAF10107DA45E2
:1001A00001D100F031F8AFF2090EBAE80F0013F0F8
:1001B000010F18BFFB1A43F001031847F03C000081
:1001C000103D0000103A24BF78C878C1FAD8520711
:1001D00024BF30C830C144BF04680C6070470000C1
:1001E0000023002400250026103A28BF78C1FBD840
:1001F000520728BF30C148BF0B6070471FB503F0DE
:100200003FFE1FBD10B510BD00F0CFF81146FFF73F
:10021000F5FF03F0AFFA00F0EDF803B4FFF7F2FFDB
:1002200003BC00F0F1F80000094880470948004786
:10023000FEE7FEE7FEE7FEE7FEE7FEE7FEE7FEE796
:10024000FEE7FEE704480549054A064B70470000F3
:10025000A13000088901000888050020880B0020D3
:10026000880700208807002053EA020C00F069800C
:100270002DE9F04B4FF00006002B1FBFB3FA83F5BA
:1002800003FA05F424FA05F65E4012BF1643B2FAEB
:1002900082F502FA05F4C5F120051EBF22FA05FC1D
:1002A00044EA0C04203556EA044C4FEA144418BFC3
:1002B000641C4FF000084FF00009904271EB030CF2
:1002C00039D3002919BFB1FA81F701FA07F6B0FA5C
:1002D00080F700FA07F6C7F120071EBF20FA07FCD7
:1002E00046EA0C062037B6FBF4FCA7EB0507103FE7
:1002F00007F01F0BCBF120060CFA0BFB2CFA06F6CD
:1003000044BFB3460026202FA4BF5E464FF0000B2B
:100310005BEA060C08BF4FF0010B19EB0B09ABFBB6
:10032000027C48EB0608C01B06FB02CC0BFB03CC8F
:1003300071EB0C01C1E70B46024641464846BDE859
:10034000F08B13B54FF000004FF00001AFF30080C9
:10035000BDE81C4070474FF0000200B513469446BC
:100360009646203922BFA0E80C50A0E80C50B1F10D
:100370002001BFF4F7AF090728BFA0E80C5048BF21
:100380000CC05DF804EB890028BF40F8042B08BFBF
:10039000704748BF20F8022B11F0804F18BF00F8BB
:1003A000012B7047704770477047754600F028F87A
:1003B000AE4605006946534620F00700854618B052
:1003C00020B5FFF73FFFBDE820404FF000064FF09B
:1003D00000074FF000084FF0000B21F00701AC467A
:1003E000ACE8C009ACE8C009ACE8C009ACE8C00999
:1003F0008D4670470446AFF300802046FFF70DFF9F
:10040000004870472405002001491820ABBEFEE7D4
:1004100026000200704710B50146806B026C12F096
:10042000500F05D0026CD20626D500F0E9F910BDB8
:10043000016C41F40071016401688A6812F0405F48
:1004400017D1027EAAB9CA6A12F4700F02D08A6864
:1004500052050ED44A6822F020024A60016C21F451
:1004600080710164016CC90403D4016C41F0010185
:10047000016400F0C3F910BD806BC26CBDE8104090
:100480000846104710B5806B40210164416C41F073
:100490000401416400F0B4F910BD10B5806B00F0A8
:1004A000AEF910BD464910B54A6822F440324A60A0
:1004B0004A6843681A434A6001684A6822F48072B5
:1004C0004A6001684A68036942EA03224A60016897
:1004D0004A6822F040724A6001684A6883681A4399
:1004E0004A6001688A6822F400628A6001688A684A
:1004F000C3681A438A60816A6FF07062D1420168F2
:100500008A6822F070628A6001688A680CD0836A07
:100510001A438A6001688A6822F040528A60016842
:100520008A68C36A1A4301E022F040528A60016877
:100530008A6822F002028A6001688A68037E42EAC1
:1005400043028A6090F82010002901684A680FD0A1
:1005500042F400624A6001684A6822F460424A60DC
:1005600001684A68174C436A04EB43331A4301E0BD
:1005700022F400624A600168CA6A22F47002CA6208
:100580000168CA6A838B104C04EB03531A43CA6296
:1005900001688A6822F400728A6001688A6890F8AB
:1005A000303042EA43228A6001688A6822F480621D
:1005B0008A6001688A68406942EA8020886010BDCC
:1005C0000023014000E0FFFF0000F0FFFEE7000015
:1005D000014800F093BA00003C0400200168182391
:1005E000CAB2103AB2FBF3F2054B6FF30901032ACA
:1005F0009B5CC36500D9091D8165084670470000F2
:100600008A3E000810B5014600208B698A6A4FF0C7
:10061000C07453B1B3F5005F15D072B1012A0CD08C
:10062000022A0AD0032A09D104E01AB1012A06D00D
:10063000022A03D1C96AC90100D5012010BDC96AC7
:10064000A142FAD010BD002AF7D0012AF2D0022A26
:10065000F3D0032AF3D010BD30B50468256825F423
:1006600080252560046863608368402B036803D09D
:1006700099600068C26030BD9A600068C16030BD9A
:10068000704772B6FEE7000030B500231A46074CEB
:1006900006E000BF34F81050521C2B449BB292B2BB
:1006A0008A42F7D3B3FBF1F030BD00003A020020DC
:1006B00078B50024009490F83C20012A19D001223A
:1006C00080F83C200A6807230568092A13D9EE68D8
:1006D0000A3A02EB420293409E43EE600B788A682E
:1006E0000A3B03EB43039A400368DD682A43DA6060
:1006F00010E0022078BD2E6902EB420293409E4337
:100700002E610B788A6803EB43039A4003681D69E6
:100710002A431A614A681F23072A13D205686E6BA1
:10072000521E02EB820293409E436E630B790A884D
:100730005B1E92B203EB83039A4003685D6B2A430E
:100740005A6327E005680D2A12D22E6BD21F02EBE6
:10075000820293409E432E630B790A88DB1F92B27C
:1007600003EB83039A4003681D6B2A431A6311E06D
:10077000EE6A0D3A02EB820293409E43EE620B79E1
:100780000A880D3B92B203EB83039A400368DD6A4B
:100790002A43DA62164B0568144A9D4206D10D6859
:1007A000122D03D1556845F48005556005689D42BA
:1007B00018D10B68102B01D0112B13D1536843F4BF
:1007C00000035360096810290CD10A490A4A0968D4
:1007D000B1FBF2F101EB8101490000E0491E0091FB
:1007E0000029FBD180F83C40002078BD0023014067
:1007F000002001405400002040420F007047704725
:10080000704770B504004FF0000503D0206C00263F
:1008100010B107E0012070BD204600F01DF86664AD
:1008200084F83C60206CC00610D4206C20F4885002
:1008300040F0020020642046FFF734FE6664206C1E
:1008400020F0020040F00100206400E0012584F85F
:100850003C60284670BD000070B586B00646142185
:100860006846FFF778FD1D493068884234D11C483E
:100870000025016841F480710160006800F4807017
:10088000059017481438016841F0010101600068C3
:10089000694600F0010005901F2000900320CDE97B
:1008A0000105104800F0AEFA104C0F48C4E90005ED
:1008B0000015A560C4E90350400060618000A0619C
:1008C0004011C4E907052046656200F0E7F908B168
:1008D000FFF7D7FEB463A66306B070BD00200140E9
:1008E000443802400000024010640240B002002080
:1008F000F8B5044600200E46009094F83C100129FB
:1009000007D0012184F83C1021688B68DB0702D0F6
:1009100011E00220F8BD8B6843F001038B60404971
:10092000404B0968B1FBF3F101EB410100E0491EC6
:1009300000910029FBD121688B68DB0503D58B680A
:1009400023F480738B6021688B68DB075DD0236C98
:1009500040F20165AB4343F4807323644968490561
:1009600005D5216C21F4005141F480512164216CA2
:10097000C90404D5616C21F00601616400E0606483
:1009800084F83C00A16B2948274DC863A16B284817
:100990000864A16B2748C86421686FF022000860D2
:1009A0002068416841F0806141602068816841F4BD
:1009B000807181602168134632464C31A06B00F093
:1009C000D7F968681C49C006206806D0884224D13F
:1009D000816811F0405F13D01FE08842F8D0174AB9
:1009E000904203D1D1F80423D206F1D0144A9042A8
:1009F00013D1D1F8041301F01F011029E8D30CE042
:100A0000816841F08041816007E0206C40F0100077
:100A10002064606C40F0010060640020F8BD0000BC
:100A20005400002040420F0000230140170400083A
:100A30009B040008850400080020014000210140BB
:100A4000002201402DE9F0410446876D00F0D8FAFC
:100A5000064694F835000025022806D080206065FF
:100A600084F834500120BDE8F0812068016821F04D
:100A7000160101602068416921F080014161206C0C
:100A800008B9A06C20B12068016821F0080101605C
:100A90002068016821F0010101600CE000F0B0FA6B
:100AA000801B052807D920206065032084F83500C5
:100AB00084F83450D7E720680068C007EED194F876
:100AC0005C103F208840B860012084F8350084F82D
:100AD00034500020C7E790F83510022903D0802158
:100AE000416501207047052180F8351000680168D4
:100AF00021F0010101600020704700002DE9F8435A
:100B000004464FF00009CDF8009063484FF41651A9
:100B1000A56D0068B0FBF1F72E6894F85C10082012
:100B200000FA01F131420FD021680A6852070BD553
:100B30000A6822F004020A6094F85C108840A860F9
:100B4000606D40F00100606594F85C104FF00108A2
:100B500008FA01F0304208D021684969090604D535
:100B6000A860606D40F00200606594F85C1004209D
:100B70008840304208D021680968890704D5A860F8
:100B8000606D40F00400606594F85C1010208840AF
:100B9000304218D021680968090714D5A860206878
:100BA0000168490304D50068000308D5A16C07E07B
:100BB0000168C90503D4016821F008010160216CB6
:100BC00009B12046884794F85C10202088403042C4
:100BD00031D021680968C9062DD5A86094F8350080
:100BE00005282068016806D0490347D5006800033E
:100BF0001DD4616C1CE021F0160101602068416980
:100C000021F080014161206C08B9A06C20B12068FE
:100C1000016821F00801016094F85C103F208840D1
:100C2000A86084F8358084F83490216D1FE0E16B72
:100C300009B120468847606D00282BD0606DC00741
:100C400014D0052084F835002068016821F00101E6
:100C500001600098401C0090B84203D820680068EA
:100C6000C007F6D184F8358084F83490E16C00290F
:100C700010D001B02046BDE8F04308470168C9051F
:100C8000D5D4016821F01001016084F8358084F822
:100C90003490CCE7BDE8F883540000202DE9F04102
:100CA000044600F0ADF906465CB1022084F8350038
:100CB000002584F834502068016821F001010160AA
:100CC0000DE00120BDE8F08100F09AF9801B0528B5
:100CD00005D920206065032084F83500F2E72068FC
:100CE0000068C007F0D12268116820480140D4E9AB
:100CF00001031843D4E903363343184363691843A7
:100D0000A3691843E3691843236A18430843616AD7
:100D1000042903D1D4E90B13194308431060206858
:100D20004069666A20F0070130460E430127042817
:100D30000CD1A06A0643E06A40B12046FFF762FC8E
:100D400020B14020606584F83570BAE720684661BC
:100D50002046FFF743FC94F85C203F2191408160DE
:100D6000656584F835700020ACE700003F8010F026
:100D70002DE9F0410446866D90F8340000250128E5
:100D80000DD0012084F8340094F835700020012F34
:100D900007D084F8340002252846BDE8F0810220FF
:100DA000FBE7022784F8357060652046FFF754FCA6
:100DB00094F85C103F208840B0602068016841F0E2
:100DC00016010160206C20B12068016841F0080123
:100DD00001602068016841F001010160DCE700006A
:100DE00070B5044600F00CF90546601C02D00448BA
:100DF0000078044400F004F9401BA042FAD370BD0F
:100E0000480000202DE9F84FDFF8BCA100220125A1
:100E10000AF1040B03264FF00F090BF1040E00BF7B
:100E20000B6805FA02F42340A34270D10F7907F052
:100E30000307012F01D0022F16D187684FEA42081D
:100E400006FA08FC27EA0C07D1F80CC00CFA08FCDB
:100E50004CEA070CC0F808C04768A7430C79C4F3F4
:100E6000001494403C4344600C79E443A4070AD046
:100E7000C4684FEA420C06FA0CF7BC438F6807FAC5
:100E80000CF72743C7600C7904F00304022C12D13D
:100E9000D40800EB840CDCF820405707FF0E09FA59
:100EA00007F824EA0804D1F8108008FA07F848EA9D
:100EB0000408CCF8208004684FEA420C06FA0CF7CC
:100EC000BC430F7907F0030707FA0CF727430760C5
:100ED0004C6814F4403F70D03C4C276847F480477E
:100EE0002760246822F0030704F480440094384CFF
:100EF00007EB040CDCF8084897074FEA177809FA63
:100F000008F7BC43334FB84202D1002724E054E035
:100F1000314FB84201D101271EE0304FB84201D114
:100F2000022719E02E4FB84201D1032714E02D4FBC
:100F3000B84201D104270FE02B4FB84201D1052759
:100F40000AE02A4FB84201D1062705E0284FB842EF
:100F500001D1072700E0082707FA08F72743CCF854
:100F60000878DAF800405746D1F804C09C435FEA9D
:100F7000CC3C00D51C433C60DBF800405F46D1F818
:100F800004C09C435FEA8C3C00D51C433C60DEF807
:100F900000407746D1F804C09C435FEACC2C00D5D2
:100FA0001C433C60084F0C373C68D1F804C09C439C
:100FB0005FEA8C2C00D51C433C60521C102AFFF4C5
:100FC0002FAFBDE8F88F0000003C014044380240DC
:100FD00000300140000002400004024000080240CE
:100FE000000C0240001002400014024000180240B1
:100FF000001C02400AB1816170470904FBE7000050
:1010000001488068704700004800002070B5040067
:1010100025D094F83D00002520B984F83C502046A6
:1010200000F0B8F8242084F83D002068016821F021
:10103000010101602068016841F4004101602068FD
:10104000016821F40041016000F00CFA4D4A61682A
:10105000914201D84C4900E04C49884201D201201C
:1010600070BD4B492368B0FBF1F15E6826F03F0686
:101070000E435E606368934206D94FF496735943FA
:101080004FF47A73B1FBF3F12368491C1E6A26F012
:101090003F06314319626168914210D84900401EF1
:1010A000B0FBF1F2521CC2F30B02042A01D204205D
:1010B00022E0B0FBF1F0401CC0F30B001CE0A26882
:1010C000F2B301EBC10303EB0116431EB3FBF6F3CE
:1010D0005B1C43F480431B0549D092B301EBC10272
:1010E00002EB0111401EB0FBF1F0401CC0F30B00FD
:1010F00040F4804040F400402168CA694CF6FF7318
:101100009A431043C861D4E907100143206802687C
:1011100022F0C00211430160D4E9030101432068B9
:10112000826848F2FF339A4311438160D4E9050194
:1011300008432168CA6822F0FF021043C86001E03A
:101140000EE016E02068016841F0010101602564AD
:10115000202084F83D00256384F83E50002070BDB7
:1011600001EB4106431EB3FBF6F35B1CB3E7012022
:10117000C2E701EB4101401EB0FBF1F0401CC0F39F
:101180000B00B7E7A086010080841E0000093D0027
:1011900040420F0010B586B0044614216846FFF7A0
:1011A000DAF81349206888421FD1124800210268EA
:1011B00042F480020260006800F4800005900D484F
:1011C0001038026842F0200202600068122200F02B
:1011D000200005900320CDE90210CDE90002042093
:1011E000049069460448FFF70DFE06B010BD0000EC
:1011F0000058004040380240001402400248816814
:101200000278114481607047480000200B4810B5F7
:10121000016841F400710160016841F4806101607E
:10122000016841F480710160032000F06FF80F2025
:1012300000F006F800F024F8002010BD003C024049
:1012400070B50D4D04464FF47A712878B1FBF0F07B
:101250000A490968B1FBF0F000F00AFB48B9102C0C
:1012600007D200222146501E00F030F800206C60AA
:1012700070BD012070BD0000480000205400002017
:101280000A4808B5016841F480410160006800F433
:10129000804000900548001F016841F080510160C6
:1012A000006800F08050009008BD00004438024003
:1012B000002809DB00F01F02012191404009800055
:1012C00000F1E020C0F8001170470000F0B40E4BB0
:1012D0001B680C46C3F30223C3F10705042D00D994
:1012E0000425191D072901D2002300E0DB1E012679
:1012F00006FA05F1491E214099409E40761E16408F
:101300003143F0BC02F003BA0CED00E0064900F0F6
:10131000070208684FF6FF03184040EA0220034A1C
:1013200010430860704700000CED00E00000FA0573
:101330002DE9F0470E46050065D0DFF81481D8F896
:101340000000F7B200F00700B04207D288F8007042
:10135000D8F8000000F00700B04254D128683D4C96
:10136000810712D5400703D5206840F4E050206083
:101370002878000703D5206840F46040206020688A
:10138000A96820F0F000084320602878C0072DD01D
:10139000304968680839012812D0022813D0032880
:1013A00011D00968890700292DDA216821F003018D
:1013B00001432160FFF724FE814641F2883A0EE0A6
:1013C00009688903EFE709688901ECE7FFF718FE70
:1013D000A0EB0901514502D90320BDE8F087206840
:1013E000696800F00C00B0EB810FEFD1D8F8001065
:1013F000404601F00701B14207D90770006800F0CC
:101400000700B04201D00120E7E72878400705D562
:101410002068E96820F4E05008432060287800073D
:1014200006D52068296920F4604040EAC1002060A8
:1014300000F038F82168084AC1F30311515CC84034
:101440000649086006480068FFF7FAFE0020C4E776
:10145000003C024008380240923E00085400002040
:101460004C0000200448054900680968044AC1F39B
:101470008221515CC8407047540000200838024067
:10148000A23E00080448054900680968044AC1F3FF
:101490004231515CC8407047540000200838024077
:1014A000A23E0008154810B5006810F00C02144860
:1014B00013D04110042A0FD0082A0ED10F4C241F3C
:1014C0002268236802F03F025B0207D52068C0F360
:1014D0008810A0FB010106E0084610BD2168C1F399
:1014E0008811A1FB00010023FEF7BEFE2168C1F3B5
:1014F0000141491C4900B0FBF1F010BD0838024021
:101500000024F4002DE9F84F04006ED02078DFF8B5
:101510004C93C007A9F104054AD009F10400016801
:10152000C1F38101012908D00068C0F381000228BD
:101530000AD1D9F80000400206D52868800337D5C3
:1015400060680028E1D033E06068B0F5803F10D0DB
:10155000B0F5A02F286810D020F4803028602868CB
:1015600020F4802028606068A8B1FFF749FD064696
:101570000DE0286840F48030F4E740F480202860D3
:10158000F7E700BFFFF73CFD801B642873D828688D
:101590008003F7D50CE0FFF733FD064605E000BFFA
:1015A000FFF72EFD801B6428F0D828688003F7D44D
:1015B0002078DFF8AC8280074FF0000A3ED5A748BC
:1015C000001D016811F00C0F08D00068C0F3810005
:1015D00002280BD1D9F80000400207D42868800700
:1015E00016D5E068012800D112E033E1E068B8B117
:1015F0000120C8F80000FFF703FD064605E000BF24
:10160000FFF7FEFC801B0228C0D828688007F7D5AA
:101610002868216920F0F80040EAC10028600DE048
:10162000C8F800A0FFF7ECFC064604E0FFF7E8FC72
:10163000801B02281FD828688007F7D4207800076D
:1016400022D5864F87486169703771B101210160E9
:10165000FFF7D6FC064604E0FFF7D2FC801B022809
:1016600009D838688007F7D50EE0C0F800A0FFF76A
:10167000C7FC064605E082E0FFF7C2FC801B02289B
:101680007DD838688007F7D42078400768D5DFF820
:10169000CCB100270BF13C0BDBF80000C0000BD4F1
:1016A000DBF8001041F08051CBF80010DBF80000AF
:1016B000012700F0805000906B4E3068C00510D4B8
:1016C000306840F480703060FFF79AFC009005E0CD
:1016D000FFF796FC0099401A022850D83068C005E0
:1016E000F6D55E4EA0686C3601280FD0052830680C
:1016F00010D020F001003060306820F0040030602D
:10170000A068B8B1FFF77CFC00900FE0306840F0B3
:101710000100F4E740F004003060F7E7FFF770FCE9
:101720000099411A41F28830814266D830688007BA
:10173000F4D50EE0FFF764FC009007E0FFF760FCD3
:101740000099411A41F28830814256D830688007AA
:10175000F4D42FB1DBF8001021F08051CBF8001049
:10176000A069C8B33D49091D0968C1F38101022977
:101770004AD00228504607D0C8F8600000E03CE09C
:10178000FFF73EFC04463BE04746C8F86000FFF721
:1017900037FC064605E000BFFFF732FC801B02283D
:1017A0002BD828688001F7D4D4E907010843A16A3F
:1017B0002E4A490802EB0141626A41EA821108435C
:1017C00094F82C1040EA0161C9F800100120386635
:1017D000FFF716FC044606E03EE000BFFFF710FCF2
:1017E000001B022809D828688001F7D534E000BF23
:1017F000FFF706FC001B022802D90320BDE8F88F82
:1018000028688001F4D427E00128F7D0D9F8000037
:10181000E26900F4800191421CD1226A00F03F018C
:10182000914217D147F6C071626A0140B1EB821F45
:1018300010D1A26A4FF0FF3300F4403103EB5202A3
:10184000B1EB024F06D194F82C1000F07060B0EBB1
:10185000016F01D00120D1E70020CFE7043802401A
:1018600000004742800E4742007000400000FFFF2A
:1018700010B5401EB0F1807F01D3012010BD4FF0A4
:10188000E02460610F21601701F041FF0020A0619A
:1018900007202061002010BD7047704710B590F8F8
:1018A0003C20012A22D0012280F83C20CA688C68A2
:1018B00022F4407222434C6822F4806222430C6876
:1018C00022F4006222430C6922F4805222434C69C4
:1018D00022F400522243C969002322F480420A43C1
:1018E00001684A6480F83C30002010BD022010BD21
:1018F00070B590F83C20012A32D0012480F83C4099
:10190000022280F83D2003685A689D6822F0700624
:101910000A6832435A60134B02689A4214D0B2F1FB
:10192000804F11D0104B9A420ED0104B9A420BD0E0
:101930000F4B9A4208D00F4B9A4205D00E4B9A4259
:1019400002D00E4B9A4204D1496825F08003194316
:10195000916080F83D40002180F83C10084670BD41
:10196000022070BD0000014000040040000800405B
:10197000000C0040000401400040014000180040FD
:1019800010B5040003D094F83D0010B107E0012029
:1019900010BD002084F83C00204600F01FF8022013
:1019A00084F83D00211D206801F094FB012084F89B
:1019B000460084F83E0084F83F0084F8400084F834
:1019C000410084F8420084F8430084F8440084F81D
:1019D000450084F83D00002010BD000038B50546E4
:1019E000026800212C48B2F1804F11D02B4B9A4253
:1019F0001DD1016841F0020101600068002200F081
:101A00000200009011461D20FFF760FC1D203EE003
:101A1000016841F0010101600068002200F001004E
:101A2000009011461C20FFF751FC1C202FE01C48A1
:101A3000824230D11848001D026842F00202026062
:101A40000068194C00F002000090164820604FF02A
:101A5000606060604020C4E9020100012061400034
:101A600060618000C4E90601C000C4E908012046A5
:101A7000FFF714F908B1FEF704FE2C63AC636C6346
:101A8000002211462D20A563FFF720FC2D20BDE884
:101A90003840FFF70DBC38BD40380240000400401C
:101AA00000040140B86402403C04002090F83D105E
:101AB000012901D001207047022180F83D10016802
:101AC000CA6842F00102CA6000681149884214D015
:101AD000B0F1804F11D00F4988420ED00E49884294
:101AE0000BD00E49884208D00D49884205D00D49D7
:101AF000884202D00C49884204D1816801F0070174
:101B0000062903D0016841F00101016000207047FF
:101B1000000001400004004000080040000C0040AC
:101B200000040140004001400018004070B5044628
:101B300090F83C000025012817D0012684F83C606D
:101B4000022084F83D002068826822F0770222F4A7
:101B50007F4282600868502838D00DDC20284FD0A2
:101B600005DC90B3102811D14AE0022070BD302866
:101B700046D040280AD13BE060282FD070280DD0F5
:101B8000B0F5805F03D0B0F5005F12D0012584F876
:101B90003D60002084F83C00284670BDCB68D1E948
:101BA0000121206801F07CFB2068816841F0770109
:101BB00009E0CB68D1E90121206801F071FB2068C0
:101BC000816841F480418160E1E719E0CA684968B1
:101BD000206801F039FC5021206806E0CA68496895
:101BE000206801F042FC6021206801F063FBCEE731
:101BF000CA684968206801F027FC40212068F4E7A2
:101C0000226801461046F0E77047704770B50446F9
:101C1000006801694FF00005C943890715D4C16800
:101C2000C943890711D4E91E01610120207720688A
:101C300080698007204602D0FFF7E7FF04E000F04C
:101C4000C3F8204600F056F9257720680169C9439A
:101C5000490717D4C168C943490713D46FF0040179
:101C60000161022020772068806910F4407F2046BF
:101C700002D0FFF7CAFF04E000F0A6F8204600F00B
:101C800039F9257720680169C943090716D4C16865
:101C9000C943090712D46FF00801016104202077BD
:101CA0002068C0698007204602D0FFF7AEFF04E03D
:101CB00000F08AF8204600F01DF9257720680169B8
:101CC000C943C90617D4C168C943C90613D46FF004
:101CD00010010161082020772068C06910F4407F5E
:101CE000204602D0FFF791FF04E000F06DF8204697
:101CF00000F000F9257720680169C943C90708D1B8
:101D0000C168C943C90704D1891E0161204600F09A
:101D10003DFA20680169C943090609D4C168C9436D
:101D2000090605D46FF0800101612046FFF7B4FD7C
:101D300020680169C943490609D4C168C9434906F5
:101D400005D46FF040010161204600F015FB2068CA
:101D50000169C94389060BD4C168C943890607D400
:101D60006FF0200101612046BDE87040FFF795BD8E
:101D700070BD000010B586B0044614216846FEF719
:101D8000EAFA0E492068884216D10D4800210268FF
:101D900042F004020260006800F0040005904FF475
:101DA000007000900220CDE901010320CDE903106D
:101DB00069460448FFF726F806B010BD000401404C
:101DC0003038024000080240704770B5044690F871
:101DD0003C0000260D4601280FD0012084F83C006D
:101DE0006AB1042A1DD0082A2FD00C2A3FD0012620
:101DF000002084F83C00304670BD022070BD206891
:101E000001F060FA2068816941F008018161206871
:101E1000816921F004018161206881692A69114387
:101E200011E0206801F07EFA2068816941F40061C8
:101E300081612068816921F4806181612068816904
:101E40002A6941EA02218161D2E7206801F0A0FA03
:101E50002068C16941F00801C1612068C16921F0B1
:101E60000401C1612068C1692A69114311E0206839
:101E700001F0C2FA2068C16941F40061C1612068C3
:101E8000C16921F48061C1612068C1692A6941EAA0
:101E90000221C161ACE710B5040003D094F83D0005
:101EA00010B107E0012010BD002084F83C0020465E
:101EB00000F01EF8022084F83D00211D206801F08A
:101EC00009F9012084F8460084F83E0084F83F00B8
:101ED00084F8400084F8410084F8420084F843000C
:101EE00084F8440084F8450084F83D00002010BDCB
:101EF000704700000C21014800F0E2B8F403002014
:101F0000704700002DE9F04117460D0004464FF0E0
:101F100000060CD0042D11D0082D16D094F84100E5
:101F2000022819D094F84100012818D07BE094F8D9
:101F30003E00022810D094F83E00F5E794F83F00E8
:101F4000022809D094F83F00EEE794F840000228F8
:101F500002D094F84000E7E70220BDE8F0810FB915
:101F6000002B60D14C494D4ADFF834C102204DB1FD
:101F7000042D18D0082D27D084F841000C2D44D012
:101F8000012687E084F83E00606AC163606A3946D2
:101F90000264606AC0F84CC02268606A3432FEF79E
:101FA000E7FE88BB21E084F83F00A06AC163A06A15
:101FB00039460264A06AC0F84CC02268A06A383270
:101FC000FEF7D6FE00BB15E084F84000E06AC1636E
:101FD000E06A39460264E06AC0F84CC02268E06AF0
:101FE0003C32FEF7C5FE78B909E02068C16841F4CB
:101FF00000711EE02068C16841F4806119E020682A
:10200000C16841F4006114E00DE0206BC163206BF6
:1020100039460264206BC0F84CC02268206B403205
:10202000FEF7A6FE08B1012097E72068C16841F4D9
:102030008051C16001222946206801F0AFF819499A
:102040002068194A884201D0904203D1436C43F47E
:10205000004343642068884213D0B0F1804F10D011
:10206000124988420DD0124988420AD0114988424B
:1020700007D0904205D01049884202D00F498842CB
:1020800004D1816801F00701062903D0016841F0FD
:1020900001010160304660E7B731000815320008E1
:1020A0004D320008000001400004014000040040DF
:1020B00000080040000C00400040014000180040B3
:1020C00070B50D0004464FF0000607D0042D0CD06B
:1020D000082D11D00C2D16D0012648E02068C168CB
:1020E00021F40071C160606A13E02068C16821F4C6
:1020F0008061C160A06A0CE02068C16821F40061C1
:10210000C160E06A05E02068C16821F48051C160C7
:10211000206BFEF7E0FC00222946206801F03EF823
:10212000184B41F2111120688A10984202D0164BC8
:10213000984209D1036A0B4206D1036A134203D1C4
:10214000436C23F4004343642068036A0B4206D1C6
:10215000016A114203D1016821F0010101600120EF
:102160003DB1042D08D0082D09D084F84100304637
:1021700070BD84F83E00FAE784F83F00F7E784F882
:102180004000F4E7000001400004014070B505463E
:102190000068704CB0F1804F61D103210420FEF73C
:1021A00073FAA0F6411001F056FD9FED6B1B53EC46
:1021B000112B01F0C9FB9FED6A1B53EC112B01F0B1
:1021C00061FD01F019FDE07103210120FEF75CFAC9
:1021D00000EE100A04F13000B8EE400A01F0A7FA50
:1021E000BDEEC00A0321022084ED090AFEF74CFA75
:1021F0000A21B0FBF1F0E06103210020FEF744FA70
:102200006421484340F6FF71B0FBF1F05649C0F13C
:10221000640020720870626A642092FBF0F34B70D5
:1022200092FBF0F300FB13228A70E279CA70226AF3
:1022300092FBF0F30B7192FBF0F300FB13224A7157
:10224000E26992FBF0F38B7192FBF0F300FB132039
:10225000C871A07908720922444800F0A5FB4449DE
:10226000286888426CD12078424E90B16089217AEA
:10227000C01E814204DD002210213046FEF7BAFE66
:10228000207AA189884204D2012210213046FEF72B
:10229000B1FE607880B3E0892E4D616A163514383E
:1022A000814210DD287808B1401E2870687808B196
:1022B000401E6870A87808B1401EA870C2B2697844
:1022C000287801F0F3FA208A616A1430814213DA27
:1022D0002878FF2801D2401C28706878FF2801D296
:1022E000401C6870A878FF2801D2401CA870C2B2B8
:1022F0006978287801F0DAFAA07888B1618A206AD2
:10230000884204DD002280213046FEF773FEA18A58
:10231000206A884204DA012280213046FEF76AFEF4
:10232000E07870B103210846FEF7AEF9B0F5966F7C
:1023300006D9012220213046FEF75CFE0120A07163
:1023400070BD0020A07102463046BDE870402021DB
:10235000FEF750BE000000203333333333E364C054
:10236000000000000000244044020020E00400209F
:10237000000400400018024070477047704700009A
:10238000F8B5016804460868CA684B6910F00F0F79
:102390004FF000055AD003F0010602F4907737435E
:1023A00065D0C10705D0D10503D5216C41F00101ED
:1023B0002164410705D5D90703D0216C41F0020102
:1023C0002164810705D5D90703D0216C41F00401B0
:1023D0002164010707D502F02001314303D0216CAD
:1023E00041F008012164216C00293BD0800604D50E
:1023F000900602D5204601F080F820684069216CE3
:10240000C0F3801001F00801014320462BD001F0F9
:102410004DF820684069400621D52068143050E806
:10242000001F21F0400140E80012002AF5D1A06B06
:10243000A8B16C490165A06BFEF74DFB002811D0D7
:10244000A06B016D01B0BDE8F040084783060ED5D2
:1024500093060CD52046BDE8F84001F04EB8204662
:10246000FFF78CFFF8BDFFF789FF2564F8BD266BE9
:102470002023012E79D1C60677D5D60675D50868F2
:10248000486800904869400640D5A16B08684068DC
:102490000004000CEAD0A28D8242E7D9E085C86929
:1024A000B0F5807F2DD020680C3050E8001F21F45B
:1024B000807140E80012002AF5D12068143050E8FD
:1024C000001F21F0010140E80012002AF5D1206828
:1024D000143050E8001F21F0400140E80012002AAB
:1024E000F5D184F83E30256320680C3050E8001F99
:1024F00021F0100140E80012002AF5D1A06BFEF790
:10250000A1FAA08DE18D401A81B229E0A08DE18D64
:10251000401A81B2E08D0028A8D00029A6D02068FA
:102520000C3050E8002F22F4907240E80026002E74
:10253000F5D12068143050E8002F22F0010240E865
:102540000026002EF5D184F83E30256320680C303B
:1025500050E8002F22F0100240E80023002BF5D1B4
:102560002046FFF70AFFF8BDFFE705062BD5150645
:1025700029D594F83D002128F5D1A068B0F5805FF9
:1025800001D12069B0B1206A411C21622168007824
:102590004860E08C401E0004000CE084E3D1206819
:1025A000C16821F08001C1602068C16841F040012C
:1025B000C160D8E7206A0088C0F308004860206A3C
:1025C000801C2062E5E74006CDD55006CBD5CA6811
:1025D000204622F04002CA6084F83D3000F003FA41
:1025E000C1E700009D34000870B5040004D094F8E1
:1025F0003D00002510B106E0012070BD84F83C507C
:10260000204600F023F8242084F83D002068C168AB
:1026100021F40051C160204600F0D0FF206801691C
:1026200021F4904101612068416921F02A01416152
:102630002068C16841F40051C1602564202084F8FD
:102640003D0084F83E00002070BD000030B587B02A
:10265000044614216846FDF77EFE2B4D22680021BA
:102660002A4802230324AA4223D1284A103215689B
:1026700045F400251560126802F4002205920268F4
:1026800042F0040202600068CDE9021400F0040088
:102690000590A002CDE900030820049069461C487B
:1026A000FEF7B0FB002211463420FEF70FFE342067
:1026B00026E0184DAA4225D1144A1432156845F077
:1026C00010051560126802F010020592026842F0CF
:1026D000010202600068CDE9021400F001000590DB
:1026E0004FF4C060CDE900030720049069460A4812
:1026F000FEF788FB002211462520FEF7E7FD252086
:10270000FEF7D6FD07B030BD004C00403038024027
:1027100000080240001001400000024090F83E30E6
:10272000202B0ED159B152B190F83C30012B08D07A
:10273000012380F83C300023036300F0C5BF012073
:1027400070470220704700002DE9F14F84B08E4998
:1027500004988E4C006888427ED18D488C4A0123B3
:1027600090F80080517895780395157992F803C018
:10277000567997790297D7790197177A8548527ACF
:102780003039303DA8F130084FF07E0A04F12809B5
:102790004FF0030B4FF0EF0E07EB87070092B8F1F5
:1027A000070F1ED2DFE808F0D204203A69BACF0042
:1027B0000729F6D2DFE801F0CA0406080A14160059
:1027C00001221BE001221CE001221DE089F800A08B
:1027D00089F801B01C2189F8021048461F21A8E0A1
:1027E000E370B3E02371B1E0072910D2DFE801F014
:1027F000AE05080B04101300E8E70022042104E0F2
:102800000022082101E000221021FEF7F3FB9DE0E9
:102810000020E0709AE00220207197E0642011FB14
:1028200000F003995C4A01EB8101584B02EB410136
:102830000844163360443038C0B21870642115FB68
:1028400001F106EB860502EB45052944029D29446A
:102850003039C9B2597000E07DE0019D6426303DF9
:1028600015FB06F502EB47022A44009D2A44303A44
:10287000D2B29A7001F01AF868E045488078303892
:10288000012933D042488278303A02EB4205C5EB49
:10289000C2124579642605EBC205C27812FB06F226
:1028A000067906EB860602EB46022A44A2F5A05200
:1028B0008579D03A303D05EB4506C6EBC515467A1D
:1028C00092B206EBC505C679642716FB07F6007AB7
:1028D00000EB800006EB40002844A0F5A050D03863
:1028E00080B2022912D0032930D113E000EB80011D
:1028F0006FF02F0000EB41016144618105EB850120
:1029000000EB41003044A08123701FE0E28120826F
:1029100063701BE06282A082A37017E0012915D1C9
:1029200089F800A089F801B0132189F802104846FF
:102930001021C170154989F804E005222831174893
:1029400000F032F802E0062900D163710A22104932
:102950001348FFF7E3FE04981249006888420FD13C
:102960000B4810220A30C179807901EB00202062E7
:1029700005B00749BDE8F04F0A310848FFF7CEBE61
:1029800005B0BDE8F08F00000010014000000020FD
:102990004D0200200018024020FEFFFF9C04002092
:1029A000E0040020004C004090F83D30202B18D16E
:1029B000A9B1A2B190F83C30012B12D001628284FF
:1029C000C28400210164212280F83D2080F83C105F
:1029D0000068C16841F08001C1600020704701209B
:1029E0007047022070477047FEE700007FB5002562
:1029F0002948009501950295264903950160012417
:102A00004FF480310461C0E90115047680F820504C
:102A10002249C0E90A150526C661C56080F8304024
:102A20004461FDF7EEFE08B1FDF72BFE072000958F
:102A3000CDE9014069461848FDF73AFE08B1FDF7B7
:102A400020FE00940224694613480194FDF730FEED
:102A500008B1FDF716FE0094032469460E48019460
:102A6000FDF726FE08B1FDF70CFE0094042469462C
:102A700009480194FDF71CFE08B1FDF702FECDE9FF
:102A8000004669460448FDF713FE002801D0FDF713
:102A9000F8FD7FBD00200140680200200100000F0A
:102AA000094808B5016841F480010160006800220E
:102AB00000F48000009011464620FEF707FCBDE8B8
:102AC00008404620FEF7F4BB303802402DE9F043C1
:102AD00087B014216846FDF73EFC334800240168A6
:102AE00041F004010160016801F0040105910168F1
:102AF00041F020010160016801F0200105910168A9
:102B000041F080010160016801F0800105910168D8
:102B100041F001010160016801F0010105910168C6
:102B200041F008010160016801F0080105910168A8
:102B300041F04001016000681C4F00F040004FF47C
:102B400070550590002229463846FEF753FADFF803
:102B500060804FF4FE76002231464046FEF74AFA86
:102B6000DFF85090002240214846FEF743FA0095D6
:102B70000125CDE90154694638460394FEF742F930
:102B80000096CDE90154694640460394FEF73AF9B0
:102B900040200090CDE90154694648460394FEF771
:102BA00031F907B0BDE8F08330380240000C024034
:102BB00000180240000802400D4810B50B490160A2
:102BC0000C49416000214FF480428160C0E903124A
:102BD00041618161C1610162FEF718FA002803D0EA
:102BE000BDE81040FDF74DBD10BD0000005800408D
:102BF00010030020A086010010B586B000241748FD
:102C0000009401940294039404944FF0804105943D
:102C1000016040F28F61C0E901144CF24F31C0E90C
:102C200003148461FEF7ACFE08B1FDF72AFD4FF4F2
:102C30008050009069460948FEF778FF08B1FDF71B
:102C400020FD049404A905480594FEF751FE0028D0
:102C500001D0FDF716FD06B010BD00006403002092
:102C600010B586B000241748009401940294039490
:102C7000049413490594016040F28F61C0E9011486
:102C800042F20F71C0E903148461FEF779FE08B1C6
:102C9000FDF7F7FC4FF48050009069460948FEF7B5
:102CA00045FF08B1FDF7EDFC049404A9054805941F
:102CB000FEF71EFE002801D0FDF7E3FC06B010BDB4
:102CC00000040040AC03002010B596B000240F941F
:102CD00010941194129413941C2108A81494FDF7D5
:102CE0003AFB20216846FDF736FB27482549C0E915
:102CF0000014D121C0E90241046144618461FEF7FE
:102D00003FFE08B1FDF7BDFC4FF480500F900FA9B6
:102D10001D48FEF70BFF08B1FDF7B3FC1A48FFF79B
:102D2000BAF808B1FDF7ADFC139413A91648149432
:102D3000FEF7DEFD08B1FDF7A4FC6020CDE9080434
:102D40000A940C940D940C2208A90F480E94FFF7D6
:102D50003CF808B1FDF795FC00944FF40050CDE924
:102D60000440029401940394694607480794FEF7CF
:102D700095FD08B1FDF785FC0348FEF7FBFF16B093
:102D800010BD000000040140F40300200C4810B501
:102D90000A4901604FF416514160002181600C2204
:102DA000C160C0E904128161C161FFF71DFC002808
:102DB00003D0BDE81040FDF764BC10BD004C0040DE
:102DC0009C0400200C4810B50A4901604FF4E13121
:102DD0004160002181600C22C160C0E90412816160
:102DE000C161FFF701FC002803D0BDE81040FDF7EA
:102DF00048BC10BD00100140E0040020FEE70000C8
:102E00002DE9F0413B4C0746012240212046FEF7C8
:102E1000F1F8394D00224FF460712846FEF7EAF8C8
:102E2000364E012291023046FEF7E4F800224FF4BC
:102E300060513046FEF7DEF83846FDF7D1FF01223B
:102E400011022846FEF7D6F80022C0212846FEF7D8
:102E5000D1F8002240212046FEF7CCF80122D10211
:102E60003046FEF7C7F800224FF450513046FEF7C7
:102E7000C1F83846FDF7B4FF012280212846FEF74D
:102E8000B9F800224FF4A0712846FEF7B3F80022EB
:102E900040212046FEF7AEF8012211033046FEF72E
:102EA000A9F800224FF430513046FEF7A3F8384617
:102EB000FDF796FF012240212846FEF79BF80022ED
:102EC0004FF4C0712846FEF795F8002240212046B5
:102ED000FEF790F8012251033046FEF78BF80022EE
:102EE0004FF4E0513046FEF785F83846BDE8F04132
:102EF000FDF776BF0008024000180240000C0240B7
:102F00002DE9F0413B4C0746012240212046FEF7C7
:102F100071F800224FF4C0712046FEF76BF8364D71
:102F2000002240212846FEF765F8344E0122510365
:102F30003046FEF75FF800224FF4E0513046FEF7CE
:102F400059F83846FDF74CFF012280212046FEF754
:102F500051F800224FF4A0712046FEF74BF80022F2
:102F600040212846FEF746F8012211033046FEF7BD
:102F700041F800224FF430513046FEF73BF8384616
:102F8000FDF72EFF012211022046FEF733F8002242
:102F9000C0212046FEF72EF8002240212846FEF7E9
:102FA00029F80122D1023046FEF724F800224FF41E
:102FB00050513046FEF71EF83846FDF711FF01224A
:102FC00040212846FEF716F800224FF46071204693
:102FD000FEF710F8012291023046FEF70BF80022AE
:102FE0004FF460513046FEF705F83846BDE8F04131
:102FF000FDF7F6BE0018024000080240000C024037
:10300000FEE770477047FEF7F9B8000030B593B09F
:1030100030216846FDF79FF914210CA8FDF79BF9B4
:103020001D480025016841F080510160006800F0F2
:10303000805011901948016841F480410160006896
:10304000022400F4804011900120009000040190BF
:103050008001CDE9064008AA0420A82182E81300D7
:103060000B906846FEF74EFA08B172B6FEE70CA95F
:103070000F2081E831004FF4A0500F904FF48050A2
:10308000109005210CA8FEF753F9002801D072B664
:10309000FEE713B030BD0000403802400070004031
:1030A0000248016841F470010160704788ED00E05A
:1030B0000148FEF7ABBD0000640300200148FEF7A5
:1030C000A5BD0000AC0300200148FEF79FBD000035
:1030D000F4030020F0B50268254C264D264E274FFC
:1030E000274B4FF0804CA04209D0604507D0A84242
:1030F00005D0B04203D0B84201D0984204D122F0AA
:10310000700E4A6842EA0E02A0421BD0604519D0F8
:10311000A84217D0B04215D0B84213D0984211D06F
:10312000184DA8420ED0184DA8420BD0174DA842FA
:1031300008D0174DA84205D0164DA84202D0164D12
:10314000A84203D122F44075CA682A434D6922F08F
:1031500080022A4302608A68C2620A688262A042D0
:1031600001D0984201D10969016301214161F0BD9B
:10317000000001400004004000080040000C004036
:10318000000401400040014000440140004801406B
:1031900000180040001C00400020004010B501F065
:1031A0001F030121046A99408C430462016A9A401A
:1031B0001143016210BD10B5846B0121626A824225
:1031C00005D12177C069F8B984F83E101CE0A26AE5
:1031D000824206D102222277C069A8B984F83F1042
:1031E00012E0E26A824206D104222277C06958B90D
:1031F00084F8401008E0226B824205D10822227731
:10320000C06908B984F841102046FEF773FE00201B
:10321000207710BD10B5846B616A814201D1012015
:103220000DE0A16A814201D1022008E0E16A8142F9
:1032300001D1042003E0216B814201D108202077D5
:103240002046FEF75DFE0020207710BD10B5846B90
:103250000121626A824203D1217784F83E1019E08D
:10326000A26A824204D10220207784F83F1011E044
:10327000E26A824204D10420207784F8401009E0F9
:10328000226B824204D10820207784F8411001E0AB
:1032900084F83D102046FEF7B7FC0020207710BDD3
:1032A00010B5846842EA032224F47F440A4322438F
:1032B000826010BD826822F070020A4342F007016A
:1032C00081607047F0B5026A22F001020262036A6F
:1032D00042688469124E24F073050C682C4323F075
:1032E00002058B682B430D4DA84201D0B04205D199
:1032F00023F00807CB683B4323F00403A84201D026
:10330000B04205D14D6922F4407215438A692A43BF
:1033100042608461496841630362F0BD000001407E
:1033200000040140F0B5026A22F010020262026A53
:10333000436884690D6824F4E64444EA05248D68F2
:1033400022F0200242EA05120F4D104EA84201D091
:10335000B04206D1CF6822F0800242EA071222F082
:103360004002A84201D0B04207D14D6923F4406326
:1033700043EA85038D6943EA8503436084614968B4
:1033800081630262F0BD00000000014000040140C2
:10339000F0B5026A22F480720262026A4368C4696C
:1033A00022F4007224F073050C68124E2C438D68D1
:1033B00042EA05220E4DA84201D0B04206D1CF68A4
:1033C00022F4006242EA072222F48062A84201D07D
:1033D000B04207D14D6923F4405343EA05138D6988
:1033E00043EA05134360C4614968C1630262F0BDEA
:1033F000000001400004014030B5026A22F480520E
:103400000262046A4268C3690D6823F4E64343EA32
:1034100005238D6824F4005444EA0534084DA8427D
:1034200002D0084DA84204D14D6922F4804242EAFC
:1034300085124260C36149680164046230BD0000C6
:10344000000001400004014010B5036A046A24F042
:1034500001040462846924F0F00444EA021423F0B5
:103460000A020A438461026210BD10B5036A23F0A8
:10347000100303628369046A23F4704343EA02324F
:1034800024F0A00343EA01118261016210BD000033
:103490000148FEF775BF00009C04002010B5806B4A
:1034A0000021C185C184FEF769FF10BD01680C31A0
:1034B00051E8002F22F4907241E80023002BF5D14F
:1034C0000168143151E8002F22F0010241E8002385
:1034D000002BF5D1016B012909D101680C3151E8AC
:1034E000002F22F0100241E80023002BF5D120210B
:1034F00080F83E1000210163704708B590F83E1037
:10350000222901D0022008BD82684FF480539A42DC
:1035100001D1016921B1816A9A421BD04AB10AE006
:103520000268816A5268C2F308020A80816A891CB3
:1035300008E0026972B10268526802F07F020A7004
:10354000816A491C8162C18D491E0904090CC1852B
:1035500003D019E002685268F1E70168CA6822F0F6
:103560002002CA600168CA6822F48072CA600168D9
:103570004A6922F001024A61202180F83E10016B65
:10358000012903D0FFF7E0F8002008BD0021016306
:1035900001680C3151E8002F22F0100241E80023AD
:1035A000002BF5D101680A68D20602D50A6849687D
:1035B0000091818DFEF7E1FEE6E7000070B504465C
:1035C00000680169E26821F44051114301612169F9
:1035D000A068E26908436169114308432168CA6829
:1035E00049F20C639A430243CA6020684169A269A8
:1035F00021F440711143416131492068884202D071
:103600003049884202D1FDF73DFF01E0FDF72AFF76
:10361000E2690023192164253226B2F5004F626861
:1036200028D0A0FB0101930F9200FCF71DFE01467C
:10363000B0FBF5F06FF01802504301EB800006EB91
:103640000010B0FBF5F000F0F002B1FBF5F002EB7A
:103650000012B1FBF5F06FF01803584301EB800046
:1036600006EB0010B0FBF5F000F00F0021681044ED
:10367000886070BDA0FB010192185B41FCF7F4FD6E
:103680000146B0FBF5F00201B1FBF5F06FF0180355
:10369000584301EB800006EBC000B0FBF5F000F0F2
:1036A000F80002EB4002B1FBF5F0584301EB80005B
:1036B00006EBC000B0FBF5F000F00700D6E7000015
:1036C000001001400014014081628285C285002102
:1036D0000164222280F83E2080F83C100168CA680C
:1036E00042F48072CA6001684A6942F001024A618C
:1036F0000068C16841F02001C160002070470000EF
:103700000148FEF73DBE0000E0040020FEE7090787
:10371000090E002804DB00F1E02080F80014704757
:1037200000F00F0000F1E02080F8141D7047F0EE6B
:10373000401A90ED000AD0ED040A70EE200AC0EDA8
:10374000010A90ED050A30EE800A80EE801A80EDC5
:10375000031A90ED020A71EEC01A01EE210AF7EE8B
:10376000001A31EEC11A80ED020A61EE200AC0EDA6
:10377000000A7047FDF74AFDFFF748FCFFF7A6F97E
:10378000FFF78EF9FFF732F9FFF736FAFFF71AFB6A
:10379000FFF712FAFFF798FAFFF7F8FAFFF760FA67
:1037A0003A48FEF783F93A48FEF780F90A22394988
:1037B0003948FEF7B3FF374910220A313748FEF780
:1037C000ADFF3449052213393548FDF791F8354CE2
:1037D00042F2283800262079012803D002284CD054
:1037E00048B10CE0474600250120FFF789FB6D1C1E
:1037F000BD42F9DB26714FF4FA70FDF7F1FA6079FA
:103800000128E8D1284D012204212846FDF7F2FBCA
:10381000012208212846FDF7EDFB4FF4FA673846F0
:10382000FDF7DEFA002208212846FDF7E3FB3846C3
:10383000FDF7D6FA3846FDF7D3FA002204212846D0
:10384000FDF7D8FB012210212846FDF7D3FB3846AF
:10385000FDF7C6FA3846FDF7C3FA3846FDF7C0FA59
:103860003846FDF7BDFA3846FDF7BAFA00221021B6
:103870002846FDF7BFFB6671ADE7474600250120EE
:10388000FFF7BEFA6D1CBD42F9DBB3E7640300200D
:10389000AC0300204D020020E00400209C04002026
:1038A0006802002000000020001802402DE9F00FFF
:1038B00092460022224B894680464FF6FF77082524
:1038C00002EB420407EAC400002105EBC40425E032
:1038D00009FA01F6360601D58F2600E0432623F8C3
:1038E000106008FA01F6360602D54FF08F0C01E0A1
:1038F0004FF0430C03EB4006A6F810C00AFA01FC97
:103900005FEA0C6C02D54FF08F0C01E04FF0430CD6
:10391000491C401CA6F820C0C9B280B28442D7D846
:10392000521C92B20A2ACBD30020A3F8E001BDE8D2
:10393000F00FF123024A0C210248FEF7E3BA00001F
:1039400058000020F40300202DE9C04130B4DFF816
:10395000A0C23CEA111418BF3CEA131400F0EC803A
:1039600081EA03051CEA111444EAD57418BF1CEA65
:10397000131500F0C780A4EB05044FF0004545EA9D
:10398000C12145EAC32341EA505143EA525304F1AD
:103990007F74994204F500344FEAC0204FEAC222F6
:1039A00008BF904200F09C804FEA13650FF240166A
:1039B000765D4FEA134506FB05F7C7F1807706FBF6
:1039C00007F74FEAD737A7FB03687642C8F5803878
:1039D000A7FB06CE38BFA8F1010807FB08E64FF0A9
:1039E000000EA6FB028CE6FB03CEDCF1000CCEF150
:1039F000004E38BFAEF1010EA6FB0C584FF0000789
:103A00004FF00005E6FB0E87A1FB08C6A0FB07CE22
:103A100016EB0E0645F10005E1FB076515F1E04EDA
:103A20007EBFA4F580345FEA46066D4116F180073B
:103A300045F100054FEA17274FEA066647EA056792
:103A4000A6F1DE46B6F1805F4FEA15251FD938464C
:103A500024F0010C05EBC471BCF1FE6F01EB0C11FD
:103A600002D8F0BCBDE8008124425CBF01F5801E95
:103A70009EEAC47F02D4F0BCBDE80081244238D461
:103A8000F0BCA1F1C041BDE8004100F0F3B94FEA3C
:103A9000D22242EA43524FEAD323A7FB02864FEADF
:103AA000D02040EA415007FB03661EEA0E0F4FEAA2
:103AB000D12105FB026658BFA6EB0056B6EB0056B7
:103AC0004FEA520E4EEAC37E18EB0E0E56EB530E23
:103AD000BDD518EB02085E417F1C55F10005B6E725
:103AE0004FF480154FF000074FF000064FF000082C
:103AF000ADE7F0BC4FF0000001F1C04101F0004122
:103B0000BDE8008111EA0C1F0CEA131500D00CE08F
:103B100013EA0C1F00F025804FF00000F0BC81EA92
:103B2000030101F00041BDE80081F0BCBDE80041A7
:103B300081EA030100F09EB9F0BCBDE8004170B518
:103B400000F04AF9097EFC3E00F007B881EA030163
:103B50004FF0000001F00041704781EA030100F0DE
:103B600089B9F0BCBDE800414FF000002149704721
:103B7000FFFDFBF9F7F5F4F2F0EEEDEBE9E8E6E432
:103B8000E3E1E0DEDDDBDAD8D7D5D4D3D1D0CFCDB9
:103B9000CCCBCAC8C7C6C5C4C2C1C0BFBEBDBCBBF2
:103BA000BAB9B8B7B6B5B4B3B2B1B0AFAEADACABED
:103BB000AAA9A8A8A7A6A5A4A3A3A2A1A09F9F9EC7
:103BC0009D9C9C9B9A999998979796959594939379
:103BD000929191908F8F8E8E8D8C8C8B8B8A898910
:103BE0008888878786858584848383828281818093
:103BF0000000FF070000F87F4FEA41034FEA5353EC
:103C0000A3F58063D3F11E03C8BFD3F1210C0CDDF3
:103C10004FF0004242EAC12242EA505232FA03FC1B
:103C20008CEAE17CACEBE1707047102BC4BF002044
:103C3000704703F5787CBCF1FF3F04D06FF0004281
:103C400082EA2100704770B500F0C6F849922480DE
:103C500000207047F2E710F0004248BF4042B0FA3F
:103C600080F310FA03F10AD0C3F11D0303F580635A
:103C70004FEA415002EB035202EBD12170474FF063
:103C800000007047DFF848C170B51CEA111E1EBF66
:103C90001CEA13159EEA0C0F95EA0C0F00F06F80DA
:103CA00081EA030423EA4C134EEAD47E21EA4C1144
:103CB00041F4801143F48013AE44A1FB024CA0FBFD
:103CC0000365AEF17F7E361955EB0C05A1FB034C65
:103CD0004CF10003A0FB021C16EB0C06654153F1EE
:103CE0000003094218BF46F0010613F4007F0BD110
:103CF0004FEA03314FEA0530340341EA155140EAF7
:103D000016506FF003020AE04FEAC3214FEAC520C4
:103D1000F40241EA555140EA56506FF0020202EBBC
:103D20002E4201EB025585EACE710AD05FEA440CBF
:103D300018BF24F0004450F1000041F1000120EAD6
:103D4000D47040F2FE7C624500D270BDA84214BF20
:103D50004FF080444FF04044002E08BF0024BEF1D5
:103D6000806FA8BFA1F1C041BDE8704080F28280A1
:103D70004FF0000001F1C04101F0004170479EEAA0
:103D80000C0F0CEA131518BF95EA0C0F06D04FF074
:103D9000000081EA030E0EF0004170BD00F01CF837
:103DA0008900013E00F007B800F009B84FEA430C63
:103DB0005FEA5C5C08D081EA030100F05BB84FEA7F
:103DC000410C5FEA5C5CF6D14FF00000014970479E
:103DD0000000FF070000F87F0EF1020E2EF0030E28
:103DE0005EF8046B364205D4012A43EB030515F552
:103DF000001F12D8012841EB010C1CF5001F0CD844
:103E00000ED14FEAD17C15F5001F0CEB4C0C0CF1D8
:103E1000020C08BF4CEBD37C04E04FF0080C01E02F
:103E20004FEAD37C0CEB4C0526FA05F606F00706A4
:103E3000B6F1040C06D20EEB860CBDE870404CF0D7
:103E4000010C6047DFE80CF0090B02024FF0004163
:103E50004FF00000A1F5002170BD19461046012861
:103E600051EB010418BFD4F5001484BF002001F009
:103E7000004170BD0808A0F500114FEA31017047FC
:103E80004FF04070E1EE100A704700061016000671
:103E900010160000000000000000010203040607E5
:103EA000080900000000010203040000CC3E0008E5
:103EB0000000002058000000C4010008243F000852
:103EC00058000020300B0000E00100080000000056
:103ED00000000000000000000000000000000000E2
:103EE00000000000000000000000000000000000D2
:103EF0000000000000000000000000000AD7A33C02
:103F00000000000000000000000000006F12833A73
:103F10000C020B3F01000000100000000000000038
:043F20000024F40085
:040000050800018965
:00000001FF
